{
  "abi": [
    {
      "type": "constructor",
      "inputs": [],
      "stateMutability": "nonpayable"
    },
    {
      "type": "function",
      "name": "campaignCount",
      "inputs": [],
      "outputs": [
        {
          "name": "",
          "type": "uint256",
          "internalType": "uint256"
        }
      ],
      "stateMutability": "view"
    },
    {
      "type": "function",
      "name": "campaigns",
      "inputs": [
        {
          "name": "",
          "type": "uint256",
          "internalType": "uint256"
        }
      ],
      "outputs": [
        {
          "name": "owner",
          "type": "address",
          "internalType": "address"
        },
        {
          "name": "name",
          "type": "string",
          "internalType": "string"
        },
        {
          "name": "description",
          "type": "string",
          "internalType": "string"
        },
        {
          "name": "currentDistributionPhase",
          "type": "uint256",
          "internalType": "uint256"
        },
        {
          "name": "totalContributors",
          "type": "uint256",
          "internalType": "uint256"
        },
        {
          "name": "totalContributions",
          "type": "uint256",
          "internalType": "uint256"
        },
        {
          "name": "contributionPhaseFinished",
          "type": "bool",
          "internalType": "bool"
        },
        {
          "name": "isCampaign",
          "type": "bool",
          "internalType": "bool"
        }
      ],
      "stateMutability": "view"
    },
    {
      "type": "function",
      "name": "contribute",
      "inputs": [
        {
          "name": "campaignId",
          "type": "uint256",
          "internalType": "uint256"
        }
      ],
      "outputs": [],
      "stateMutability": "payable"
    },
    {
      "type": "function",
      "name": "contributions",
      "inputs": [
        {
          "name": "",
          "type": "uint256",
          "internalType": "uint256"
        },
        {
          "name": "",
          "type": "address",
          "internalType": "address"
        }
      ],
      "outputs": [
        {
          "name": "",
          "type": "uint256",
          "internalType": "uint256"
        }
      ],
      "stateMutability": "view"
    },
    {
      "type": "function",
      "name": "createCampaign",
      "inputs": [
        {
          "name": "name",
          "type": "string",
          "internalType": "string"
        },
        {
          "name": "description",
          "type": "string",
          "internalType": "string"
        },
        {
          "name": "images",
          "type": "string[]",
          "internalType": "string[]"
        },
        {
          "name": "distributionPhases",
          "type": "tuple[]",
          "internalType": "struct CampaignManager.DistributionPhase[]",
          "components": [
            {
              "name": "amount",
              "type": "uint256",
              "internalType": "uint256"
            },
            {
              "name": "howToProve",
              "type": "string",
              "internalType": "string"
            }
          ]
        }
      ],
      "outputs": [],
      "stateMutability": "nonpayable"
    },
    {
      "type": "function",
      "name": "execute",
      "inputs": [
        {
          "name": "to",
          "type": "address",
          "internalType": "address"
        },
        {
          "name": "value",
          "type": "uint256",
          "internalType": "uint256"
        },
        {
          "name": "data",
          "type": "bytes",
          "internalType": "bytes"
        }
      ],
      "outputs": [],
      "stateMutability": "nonpayable"
    },
    {
      "type": "function",
      "name": "hasVoted",
      "inputs": [
        {
          "name": "",
          "type": "uint256",
          "internalType": "uint256"
        },
        {
          "name": "",
          "type": "uint256",
          "internalType": "uint256"
        },
        {
          "name": "",
          "type": "address",
          "internalType": "address"
        }
      ],
      "outputs": [
        {
          "name": "",
          "type": "bool",
          "internalType": "bool"
        }
      ],
      "stateMutability": "view"
    },
    {
      "type": "function",
      "name": "owner",
      "inputs": [],
      "outputs": [
        {
          "name": "",
          "type": "address",
          "internalType": "address"
        }
      ],
      "stateMutability": "view"
    },
    {
      "type": "function",
      "name": "voteForDistributionPhase",
      "inputs": [
        {
          "name": "campaignId",
          "type": "uint256",
          "internalType": "uint256"
        },
        {
          "name": "agree",
          "type": "bool",
          "internalType": "bool"
        }
      ],
      "outputs": [],
      "stateMutability": "nonpayable"
    },
    {
      "type": "function",
      "name": "votes",
      "inputs": [
        {
          "name": "",
          "type": "uint256",
          "internalType": "uint256"
        },
        {
          "name": "",
          "type": "uint256",
          "internalType": "uint256"
        }
      ],
      "outputs": [
        {
          "name": "isFinished",
          "type": "bool",
          "internalType": "bool"
        },
        {
          "name": "isApproved",
          "type": "bool",
          "internalType": "bool"
        },
        {
          "name": "yesVotes",
          "type": "uint256",
          "internalType": "uint256"
        },
        {
          "name": "noVotes",
          "type": "uint256",
          "internalType": "uint256"
        }
      ],
      "stateMutability": "view"
    }
  ],
  "bytecode": {
    "object": "0x60a0604052348015600e575f5ffd5b503373ffffffffffffffffffffffffffffffffffffffff1660808173ffffffffffffffffffffffffffffffffffffffff16815250506080516121c56100625f395f818161088e01526108b201526121c55ff3fe608060405260043610610090575f3560e01c80638da5cb5b116100585780638da5cb5b146101a1578063b61d27f6146101cb578063bca2a110146101f3578063c1cbbca71461021b578063c6e36a321461023757610090565b80630d39a1d314610094578063141961bc146100d05780633d891f59146101135780637274e30d1461014f57806372fb388414610179575b5f5ffd5b34801561009f575f5ffd5b506100ba60048036038101906100b5919061106e565b610276565b6040516100c791906110d8565b60405180910390f35b3480156100db575f5ffd5b506100f660048036038101906100f191906110f1565b6102ab565b60405161010a9897969594939291906111aa565b60405180910390f35b34801561011e575f5ffd5b5061013960048036038101906101349190611234565b610433565b6040516101469190611272565b60405180910390f35b34801561015a575f5ffd5b50610163610453565b6040516101709190611272565b60405180910390f35b348015610184575f5ffd5b5061019f600480360381019061019a91906112b5565b610458565b005b3480156101ac575f5ffd5b506101b561088c565b6040516101c291906112f3565b60405180910390f35b3480156101d6575f5ffd5b506101f160048036038101906101ec9190611438565b6108b0565b005b3480156101fe575f5ffd5b5061021960048036038101906102149190611773565b6109ee565b005b610235600480360381019061023091906110f1565b610cb8565b005b348015610242575f5ffd5b5061025d60048036038101906102589190611847565b610db9565b60405161026d9493929190611885565b60405180910390f35b6004602052825f5260405f20602052815f5260405f20602052805f5260405f205f92509250509054906101000a900460ff1681565b6001602052805f5260405f205f91509050805f015f9054906101000a900473ffffffffffffffffffffffffffffffffffffffff16908060010180546102ef906118f5565b80601f016020809104026020016040519081016040528092919081815260200182805461031b906118f5565b80156103665780601f1061033d57610100808354040283529160200191610366565b820191905f5260205f20905b81548152906001019060200180831161034957829003601f168201915b50505050509080600201805461037b906118f5565b80601f01602080910402602001604051908101604052809291908181526020018280546103a7906118f5565b80156103f25780601f106103c9576101008083540402835291602001916103f2565b820191905f5260205f20905b8154815290600101906020018083116103d557829003601f168201915b505050505090806004015490806006015490806007015490806008015f9054906101000a900460ff16908060080160019054906101000a900460ff16905088565b6002602052815f5260405f20602052805f5260405f205f91509150505481565b5f5481565b5f60015f8481526020019081526020015f2090508060080160019054906101000a900460ff166104bd576040517f08c379a00000000000000000000000000000000000000000000000000000000081526004016104b49061196f565b60405180910390fd5b806005018054905081600401541061050a576040517f08c379a0000000000000000000000000000000000000000000000000000000008152600401610501906119fd565b60405180910390fd5b5f60035f8581526020019081526020015f205f836004015481526020019081526020015f209050805f015f9054906101000a900460ff1615610581576040517f08c379a000000000000000000000000000000000000000000000000000000000815260040161057890611a65565b60405180910390fd5b60045f8581526020019081526020015f205f836004015481526020019081526020015f205f3373ffffffffffffffffffffffffffffffffffffffff1673ffffffffffffffffffffffffffffffffffffffff1681526020019081526020015f205f9054906101000a900460ff161561062d576040517f08c379a000000000000000000000000000000000000000000000000000000000815260040161062490611acd565b60405180910390fd5b821561065157806001015f81548092919061064790611b18565b919050555061066b565b806002015f81548092919061066590611b18565b91905055505b600160045f8681526020019081526020015f205f846004015481526020019081526020015f205f3373ffffffffffffffffffffffffffffffffffffffff1673ffffffffffffffffffffffffffffffffffffffff1681526020019081526020015f205f6101000a81548160ff0219169083151502179055505f816002015482600101546106f79190611b5f565b90505f60066004856006015461070d9190611b92565b6107179190611c00565b9050808210610884576001835f015f6101000a81548160ff0219169083151502179055508260020154836001015411835f0160016101000a81548160ff021916908315150217905550825f0160019054906101000a900460ff161561086a575f845f015f9054906101000a900473ffffffffffffffffffffffffffffffffffffffff1673ffffffffffffffffffffffffffffffffffffffff16856005018660040154815481106107ca576107c9611c30565b5b905f5260205f2090600202015f01546040516107e590611c8a565b5f6040518083038185875af1925050503d805f811461081f576040519150601f19603f3d011682016040523d82523d5f602084013e610824565b606091505b5050905080610868576040517f08c379a000000000000000000000000000000000000000000000000000000000815260040161085f90611ce8565b60405180910390fd5b505b836004015f81548092919061087e90611b18565b91905055505b505050505050565b7f000000000000000000000000000000000000000000000000000000000000000081565b7f000000000000000000000000000000000000000000000000000000000000000073ffffffffffffffffffffffffffffffffffffffff163373ffffffffffffffffffffffffffffffffffffffff161461093e576040517f08c379a000000000000000000000000000000000000000000000000000000000815260040161093590611d50565b60405180910390fd5b5f8373ffffffffffffffffffffffffffffffffffffffff1683836040516109659190611da8565b5f6040518083038185875af1925050503d805f811461099f576040519150601f19603f3d011682016040523d82523d5f602084013e6109a4565b606091505b50509050806109e8576040517f08c379a00000000000000000000000000000000000000000000000000000000081526004016109df90611e08565b60405180910390fd5b50505050565b5f60015f5f5481526020019081526020015f20905033815f015f6101000a81548173ffffffffffffffffffffffffffffffffffffffff021916908373ffffffffffffffffffffffffffffffffffffffff16021790555084816001019081610a559190611fc6565b5083816002019081610a679190611fc6565b5082816003019080519060200190610a80929190610e08565b505f5f90505b8251811015610b3657816005016040518060400160405280858481518110610ab157610ab0611c30565b5b60200260200101515f01518152602001858481518110610ad457610ad3611c30565b5b602002602001015160200151815250908060018154018082558091505060019003905f5260205f2090600202015f909190919091505f820151815f01556020820151816001019081610b269190611fc6565b5050508080600101915050610a86565b5060018160080160016101000a81548160ff0219169083151502179055508060015f5f5481526020019081526020015f205f82015f9054906101000a900473ffffffffffffffffffffffffffffffffffffffff16815f015f6101000a81548173ffffffffffffffffffffffffffffffffffffffff021916908373ffffffffffffffffffffffffffffffffffffffff16021790555060018201816001019081610bde91906120aa565b5060028201816002019081610bf391906120aa565b506003820181600301908054610c0a929190610e5f565b50600482015481600401556005820181600501908054610c2b929190610eb8565b506006820154816006015560078201548160070155600882015f9054906101000a900460ff16816008015f6101000a81548160ff0219169083151502179055506008820160019054906101000a900460ff168160080160016101000a81548160ff0219169083151502179055509050505f5f815480929190610cac90611b18565b91905055505050505050565b5f60015f8381526020019081526020015f20905034816007015f828254610cdf9190611b5f565b925050819055505f60025f8481526020019081526020015f205f3373ffffffffffffffffffffffffffffffffffffffff1673ffffffffffffffffffffffffffffffffffffffff1681526020019081526020015f205403610d5357806006015f815480929190610d4d90611b18565b91905055505b3460025f8481526020019081526020015f205f3373ffffffffffffffffffffffffffffffffffffffff1673ffffffffffffffffffffffffffffffffffffffff1681526020019081526020015f205f828254610dae9190611b5f565b925050819055505050565b6003602052815f5260405f20602052805f5260405f205f9150915050805f015f9054906101000a900460ff1690805f0160019054906101000a900460ff16908060010154908060020154905084565b828054828255905f5260205f20908101928215610e4e579160200282015b82811115610e4d578251829081610e3d9190611fc6565b5091602001919060010190610e26565b5b509050610e5b9190610f29565b5090565b828054828255905f5260205f20908101928215610ea7575f5260205f209182015b82811115610ea65782829081610e9691906120aa565b5091600101919060010190610e80565b5b509050610eb49190610f29565b5090565b828054828255905f5260205f20906002028101928215610f18575f5260205f209160020282015b82811115610f175782825f820154815f015560018201816001019081610f0591906120aa565b50505091600201919060020190610edf565b5b509050610f259190610f4c565b5090565b5b80821115610f48575f8181610f3f9190610f78565b50600101610f2a565b5090565b5b80821115610f74575f5f82015f9055600182015f610f6b9190610f78565b50600201610f4d565b5090565b508054610f84906118f5565b5f825580601f10610f955750610fb2565b601f0160209004905f5260205f2090810190610fb19190610fb5565b5b50565b5b80821115610fcc575f815f905550600101610fb6565b5090565b5f604051905090565b5f5ffd5b5f5ffd5b5f819050919050565b610ff381610fe1565b8114610ffd575f5ffd5b50565b5f8135905061100e81610fea565b92915050565b5f73ffffffffffffffffffffffffffffffffffffffff82169050919050565b5f61103d82611014565b9050919050565b61104d81611033565b8114611057575f5ffd5b50565b5f8135905061106881611044565b92915050565b5f5f5f6060848603121561108557611084610fd9565b5b5f61109286828701611000565b93505060206110a386828701611000565b92505060406110b48682870161105a565b9150509250925092565b5f8115159050919050565b6110d2816110be565b82525050565b5f6020820190506110eb5f8301846110c9565b92915050565b5f6020828403121561110657611105610fd9565b5b5f61111384828501611000565b91505092915050565b61112581611033565b82525050565b5f81519050919050565b5f82825260208201905092915050565b8281835e5f83830152505050565b5f601f19601f8301169050919050565b5f61116d8261112b565b6111778185611135565b9350611187818560208601611145565b61119081611153565b840191505092915050565b6111a481610fe1565b82525050565b5f610100820190506111be5f83018b61111c565b81810360208301526111d0818a611163565b905081810360408301526111e48189611163565b90506111f3606083018861119b565b611200608083018761119b565b61120d60a083018661119b565b61121a60c08301856110c9565b61122760e08301846110c9565b9998505050505050505050565b5f5f6040838503121561124a57611249610fd9565b5b5f61125785828601611000565b92505060206112688582860161105a565b9150509250929050565b5f6020820190506112855f83018461119b565b92915050565b611294816110be565b811461129e575f5ffd5b50565b5f813590506112af8161128b565b92915050565b5f5f604083850312156112cb576112ca610fd9565b5b5f6112d885828601611000565b92505060206112e9858286016112a1565b9150509250929050565b5f6020820190506113065f83018461111c565b92915050565b5f5ffd5b5f5ffd5b7f4e487b71000000000000000000000000000000000000000000000000000000005f52604160045260245ffd5b61134a82611153565b810181811067ffffffffffffffff8211171561136957611368611314565b5b80604052505050565b5f61137b610fd0565b90506113878282611341565b919050565b5f67ffffffffffffffff8211156113a6576113a5611314565b5b6113af82611153565b9050602081019050919050565b828183375f83830152505050565b5f6113dc6113d78461138c565b611372565b9050828152602081018484840111156113f8576113f7611310565b5b6114038482856113bc565b509392505050565b5f82601f83011261141f5761141e61130c565b5b813561142f8482602086016113ca565b91505092915050565b5f5f5f6060848603121561144f5761144e610fd9565b5b5f61145c8682870161105a565b935050602061146d86828701611000565b925050604084013567ffffffffffffffff81111561148e5761148d610fdd565b5b61149a8682870161140b565b9150509250925092565b5f67ffffffffffffffff8211156114be576114bd611314565b5b6114c782611153565b9050602081019050919050565b5f6114e66114e1846114a4565b611372565b90508281526020810184848401111561150257611501611310565b5b61150d8482856113bc565b509392505050565b5f82601f8301126115295761152861130c565b5b81356115398482602086016114d4565b91505092915050565b5f67ffffffffffffffff82111561155c5761155b611314565b5b602082029050602081019050919050565b5f5ffd5b5f61158361157e84611542565b611372565b905080838252602082019050602084028301858111156115a6576115a561156d565b5b835b818110156115ed57803567ffffffffffffffff8111156115cb576115ca61130c565b5b8086016115d88982611515565b855260208501945050506020810190506115a8565b5050509392505050565b5f82601f83011261160b5761160a61130c565b5b813561161b848260208601611571565b91505092915050565b5f67ffffffffffffffff82111561163e5761163d611314565b5b602082029050602081019050919050565b5f5ffd5b5f5ffd5b5f6040828403121561166c5761166b61164f565b5b6116766040611372565b90505f61168584828501611000565b5f83015250602082013567ffffffffffffffff8111156116a8576116a7611653565b5b6116b484828501611515565b60208301525092915050565b5f6116d26116cd84611624565b611372565b905080838252602082019050602084028301858111156116f5576116f461156d565b5b835b8181101561173c57803567ffffffffffffffff81111561171a5761171961130c565b5b8086016117278982611657565b855260208501945050506020810190506116f7565b5050509392505050565b5f82601f83011261175a5761175961130c565b5b813561176a8482602086016116c0565b91505092915050565b5f5f5f5f6080858703121561178b5761178a610fd9565b5b5f85013567ffffffffffffffff8111156117a8576117a7610fdd565b5b6117b487828801611515565b945050602085013567ffffffffffffffff8111156117d5576117d4610fdd565b5b6117e187828801611515565b935050604085013567ffffffffffffffff81111561180257611801610fdd565b5b61180e878288016115f7565b925050606085013567ffffffffffffffff81111561182f5761182e610fdd565b5b61183b87828801611746565b91505092959194509250565b5f5f6040838503121561185d5761185c610fd9565b5b5f61186a85828601611000565b925050602061187b85828601611000565b9150509250929050565b5f6080820190506118985f8301876110c9565b6118a560208301866110c9565b6118b2604083018561119b565b6118bf606083018461119b565b95945050505050565b7f4e487b71000000000000000000000000000000000000000000000000000000005f52602260045260245ffd5b5f600282049050600182168061190c57607f821691505b60208210810361191f5761191e6118c8565b5b50919050565b7f43616d706169676e20646f6573206e6f742065786973740000000000000000005f82015250565b5f611959601783611135565b915061196482611925565b602082019050919050565b5f6020820190508181035f8301526119868161194d565b9050919050565b7f446973747269627574696f6e20706861736520646f6573206e6f7420657869735f8201527f7400000000000000000000000000000000000000000000000000000000000000602082015250565b5f6119e7602183611135565b91506119f28261198d565b604082019050919050565b5f6020820190508181035f830152611a14816119db565b9050919050565b7f566f746520616c72656164792066696e697368656400000000000000000000005f82015250565b5f611a4f601583611135565b9150611a5a82611a1b565b602082019050919050565b5f6020820190508181035f830152611a7c81611a43565b9050919050565b7f416c726561647920766f746564000000000000000000000000000000000000005f82015250565b5f611ab7600d83611135565b9150611ac282611a83565b602082019050919050565b5f6020820190508181035f830152611ae481611aab565b9050919050565b7f4e487b71000000000000000000000000000000000000000000000000000000005f52601160045260245ffd5b5f611b2282610fe1565b91507fffffffffffffffffffffffffffffffffffffffffffffffffffffffffffffffff8203611b5457611b53611aeb565b5b600182019050919050565b5f611b6982610fe1565b9150611b7483610fe1565b9250828201905080821115611b8c57611b8b611aeb565b5b92915050565b5f611b9c82610fe1565b9150611ba783610fe1565b9250828202611bb581610fe1565b91508282048414831517611bcc57611bcb611aeb565b5b5092915050565b7f4e487b71000000000000000000000000000000000000000000000000000000005f52601260045260245ffd5b5f611c0a82610fe1565b9150611c1583610fe1565b925082611c2557611c24611bd3565b5b828204905092915050565b7f4e487b71000000000000000000000000000000000000000000000000000000005f52603260045260245ffd5b5f81905092915050565b50565b5f611c755f83611c5d565b9150611c8082611c67565b5f82019050919050565b5f611c9482611c6a565b9150819050919050565b7f5472616e73666572206661696c656400000000000000000000000000000000005f82015250565b5f611cd2600f83611135565b9150611cdd82611c9e565b602082019050919050565b5f6020820190508181035f830152611cff81611cc6565b9050919050565b7f4f6e6c79206f776e65722063616e2065786563757465000000000000000000005f82015250565b5f611d3a601683611135565b9150611d4582611d06565b602082019050919050565b5f6020820190508181035f830152611d6781611d2e565b9050919050565b5f81519050919050565b5f611d8282611d6e565b611d8c8185611c5d565b9350611d9c818560208601611145565b80840191505092915050565b5f611db38284611d78565b915081905092915050565b7f457865637574696f6e206661696c6564000000000000000000000000000000005f82015250565b5f611df2601083611135565b9150611dfd82611dbe565b602082019050919050565b5f6020820190508181035f830152611e1f81611de6565b9050919050565b5f819050815f5260205f209050919050565b5f6020601f8301049050919050565b5f82821b905092915050565b5f60088302611e827fffffffffffffffffffffffffffffffffffffffffffffffffffffffffffffffff82611e47565b611e8c8683611e47565b95508019841693508086168417925050509392505050565b5f819050919050565b5f611ec7611ec2611ebd84610fe1565b611ea4565b610fe1565b9050919050565b5f819050919050565b611ee083611ead565b611ef4611eec82611ece565b848454611e53565b825550505050565b5f5f905090565b611f0b611efc565b611f16818484611ed7565b505050565b5b81811015611f3957611f2e5f82611f03565b600181019050611f1c565b5050565b601f821115611f7e57611f4f81611e26565b611f5884611e38565b81016020851015611f67578190505b611f7b611f7385611e38565b830182611f1b565b50505b505050565b5f82821c905092915050565b5f611f9e5f1984600802611f83565b1980831691505092915050565b5f611fb68383611f8f565b9150826002028217905092915050565b611fcf8261112b565b67ffffffffffffffff811115611fe857611fe7611314565b5b611ff282546118f5565b611ffd828285611f3d565b5f60209050601f83116001811461202e575f841561201c578287015190505b6120268582611fab565b86555061208d565b601f19841661203c86611e26565b5f5b828110156120635784890151825560018201915060208501945060208101905061203e565b86831015612080578489015161207c601f891682611f8f565b8355505b6001600288020188555050505b505050505050565b5f815490506120a3816118f5565b9050919050565b8181036120b857505061218d565b6120c182612095565b67ffffffffffffffff8111156120da576120d9611314565b5b6120e482546118f5565b6120ef828285611f3d565b5f601f83116001811461211c575f841561210a578287015490505b6121148582611fab565b865550612186565b601f19841661212a87611e26565b965061213586611e26565b5f5b8281101561215c57848901548255600182019150600185019450602081019050612137565b868310156121795784890154612175601f891682611f8f565b8355505b6001600288020188555050505b5050505050505b56fea26469706673582212206c2e995d39aacde502f79a71d2d87d73c0822487904ca2ce2ae2252db9ac712164736f6c634300081b0033",
    "linkReferences": {}
  },
  "methodIdentifiers": {
    "campaignCount()": "7274e30d",
    "campaigns(uint256)": "141961bc",
    "contribute(uint256)": "c1cbbca7",
    "contributions(uint256,address)": "3d891f59",
    "createCampaign(string,string,string[],(uint256,string)[])": "bca2a110",
    "execute(address,uint256,bytes)": "b61d27f6",
    "hasVoted(uint256,uint256,address)": "0d39a1d3",
    "owner()": "8da5cb5b",
    "voteForDistributionPhase(uint256,bool)": "72fb3884",
    "votes(uint256,uint256)": "c6e36a32"
  },
  "id": 20
}